:100000000C943A000C9457000C9457000C94570031
:100010000C9436050C9465020C9457000C94570010
:100020000C9457000C9457000C9457000C949E03AA
:100030000C9457000C9457000C945F050C945700D7
:100040000C9457000C9457000C947D040C945700AA
:100050000C9457000C9457000C9457000C945700C4
:100060000C9457000C9457006364696E6F7073753D
:1000700078585B0011241FBECFEFD8E0DEBFCDBFA4
:1000800011E0A0E0B1E0E8E6F9E102C005900D92D0
:10009000AE35B107D9F721E0AEE5B1E001C01D9260
:1000A000AB37B207E1F70E9499050C94B20C0C949F
:1000B000000081E00E94B30063E080E00E94C50080
:1000C00082E191E00E940F0161E081E00E94C500A1
:1000D0008DE191E00E940F012FEF83ED90E321501D
:1000E00080409040E1F700C0000081E00C94B30034
:1000F000CF93DF930E94CD000E949201C1E0D0E037
:10010000811102C0D0E0C0E00E94B2030E94280327
:100110000E9454050E94E5040E94E0030E94B0037F
:100120003D9A0E9423020E9425033C9A44987894A9
:1001300084E690E00E94610C98ED980F933330F4C0
:1001400080936F01CE01DF91CF91089580E5F8CFC4
:100150009BB19F709BB99BB1807F892B8BB9299AEA
:10016000299A29980895CF93C82F28980E94A8000B
:100170008C2F8295807F0E94A8008FE39FE10197DA
:10018000F1F700C00000CF910895811104C080E80C
:10019000860F0C94B30080ECFBCF84B1836084B9EC
:1001A0008AB1806F8AB98FE59AEE0197F1F700C0A6
:1001B000000080E30E94A8008FE19EE40197F1F720
:1001C00000C0000080E30E94A8008FED91E001973D
:1001D000F1F700C0000080E30E94A80080E20E94C6
:1001E000A8008FE39FE10197F1F700C0000088E2CB
:1001F0000E94B3008FE00C94B300CF93C82F289ACD
:100200000E94A8008C2F8295807F0E94A8008FE317
:100210009FE10197F1F700C00000CF910895CF93BF
:10022000DF93EC018991811103C0DF91CF91089593
:100230000E94FD00F7CF3B9A8FE599E00197F1F717
:1002400000C000003B988BE091E00197F1F700C0FF
:10025000000033990AC0339BFECF87EC90E00197F2
:10026000F1F700C0000081E0089580E008953B9A16
:100270008AE08A95F1F700C03B988FEE90E00197F5
:10028000F1F700C0000008953B9A8FEE90E00197CF
:10029000F1F700C000003B989AE09A95F1F700C092
:1002A0000895CF93DF93D82FC8E0D0FF08C00E94F5
:1002B0003701D695C150C9F7DF91CF9108950E94BB
:1002C0004401F7CF0E941B01882331F08CEC0E947F
:1002D000510184E40C94510108953B9A8AE08A9577
:1002E000F1F700C03B98E5E3EA95F1F7000086B12D
:1002F000E7ECF0E03197F1F700C000008870089556
:100300001F93CF93DF93D8E011E0C0E00E946D010E
:100310008111C12B110FD150C9F78C2FDF91CF91D3
:100320001F910895EF92FF920F931F93CF93DF9346
:10033000CDB7DEB729970FB6F894DEBF0FBECDBF9D
:100340003B9843980E941B0181110EC080E02996C2
:100350000FB6F894DEBF0FBECDBFDF91CF911F91D6
:100360000F91FF90EF9008958CEC0E9451018EEB5D
:100370000E9451018E010F5F1F4F7E012AE0E20EA5
:10038000F11C0E948001F80181938F01EE15FF0599
:10039000C1F70E941B018823C9F28CEC0E94510115
:1003A0008EE40E9451018B810E9451018C810E9438
:1003B00051018FE70E9451018FE891E00197F1F719
:1003C00000C000000E941B01882309F4BFCF8CEC01
:1003D0000E94510188E40E9451019FEFE9EFF0E093
:1003E0009150E040F040E1F700C0000081E0AFCF65
:1003F000CF93DF93EC010E946D01882301F10E94ED
:100400001B018823D1F08CEC0E9451018EEB0E94DD
:1004100051010E94800188830E94800189830E948B
:1004200080010E9480010E9480010E9480010E9440
:1004300080010E9480010E94800181E001C080E073
:10044000DF91CF9108958AB1837F8AB95A9A5B9AD6
:10045000E8E6F0E0808184608083EDE6F0E0808172
:1004600088608083808184608083089589B1982F1B
:10047000947090937301887080936E0180916E01E7
:1004800081110BC080917301811107C0109270011E
:100490008091700180937201089580916E018111A5
:1004A00008C080917301882321F081E0809370015E
:1004B000EFCF80916E01882331F08091730181111B
:1004C00002C082E0F3CF83E0F1CF1F920F920FB60C
:1004D0000F9211242F933F934F935F936F937F93CA
:1004E0008F939F93AF93BF93EF93FF9389B18093C3
:1004F0007101809171018470809373018091710109
:10050000887080936E0180917001811118C0809174
:100510007301882341F080916E01811104C081E054
:100520008093720161C08091730181111CC0809120
:100530006E018823C1F082E0809372010FC0809128
:100540007001813009F042C080917301811134C083
:1005500080916E01811130C01092720180916F0103
:10056000815080936F0180916F018B3508F466C0D4
:100570008AE580936F0160916F0184E690E00E94AC
:10058000690C9091720180917001981721F080910F
:10059000720180937001FF91EF91BF91AF919F9194
:1005A0008F917F916F915F914F913F912F910F901C
:1005B0000FBE0F901F90189580917301882399F2B8
:1005C00080916E01882379F283E0AACF8091700137
:1005D0008230D1F480917301882351F080916E01B3
:1005E000811106C01092720180916F018F5FB9CFA7
:1005F00080917301882309F4B6CF80916E0188231E
:1006000009F4B1CF83E098CF80917001833009F075
:10061000AACF80917301882331F080916E018111FE
:1006200002C081E089CF8091730181119CCF8091BC
:100630006E01882309F497CF82E072CF80916F0119
:10064000823308F098CF82E394CF249A259A0895B4
:10065000E1E8F0E0808188608083EFE6F0E080816F
:100660008260808382E19AE790938900809388007A
:10067000089520916F018091600190916101281788
:100680001906B4F0809181008B7F809381002C98B3
:100690002D9A6CE070E081E090E00E94C50083E458
:1006A00091E00E940F01109263011092620108957F
:1006B00020916F012817190609F05CF540916F0130
:1006C0009C0122503109421713061CF580918100CC
:1006D0008B7F809381002C982C9A2D986CE070E091
:1006E00081E090E00E94C50088E491E00E940F0143
:1006F0008091620190916301181619061CF085B56E
:10070000846085BD81E090E09093630180936201F5
:10071000089520916F012817190609F044F6809179
:1007200081008460809381002D986CE070E081E00E
:1007300090E00E94C5008DE491E0B3CF1F920F922C
:100740000FB60F9211248F939F9385B190E1892763
:1007500085B99F918F910F900FBE0F901F901895A4
:10076000239A0895E0EBF0E08081836080838081AC
:100770008068808387E18093B300E1EBF0E08081C3
:100780008760808308959C018091B300843290F04B
:1007900083E28093B30049EE4203C001439F900D72
:1007A00011246CE370E00E947706635C7F4F6093D6
:1007B000B30008958091B3008C3068F78CE0E9CFE6
:1007C00087E690E09093C5008093C400E1ECF0E0F0
:1007D00080818861808380818068808386E08093C7
:1007E000C20008950F931F93CF93DF9300D000D0E2
:1007F0001F92CDB7DEB7109265011092640166E0DA
:1008000070E081E090E00E94C50080E091E09F935D
:100810008F9382E591E09F938F9384E791E09F937C
:100820008F930E94CF06809101018F9380910001E8
:100830008F9380E491E09F938F931F9285E08F9335
:100840008E010F5F1F4F1F930F930E949F06C801D9
:100850000E940F010FB6F894DEBF0FBECDBF0F9000
:100860000F900F900F900F90DF91CF911F910F91EC
:1008700008959091C00095FFFCCF8093C600089525
:10088000CF93DF93EC018991811103C0DF91CF9168
:1008900008950E943904F7CF0F931F93CF93DF93EE
:1008A00000D000D000D01F92CDB7DEB7809161019B
:1008B0008F93809160018F9386E591E09F938F9352
:1008C0001F9287E08F938E010F5F1F4F1F930F932F
:1008D0000E949F06C8010E9440040FB6F894DEBF34
:1008E0000FBECDBF27960FB6F894DEBF0FBECDBFAB
:1008F000DF91CF911F910F9108951F920F920FB624
:100900000F9211242F933F938F939F93EF93FF9315
:100910008091C6008034C9F481E090E09093670133
:100920008093660110927A0110927901109265010C
:1009300010926401FF91EF919F918F913F912F91C0
:100940000F900FBE0F901F90189520916601309167
:1009500067012130310571F78D3211F08B32B9F416
:100960002091790130917A01232B89F4E09179016A
:10097000F0917A01EC58FE4F80838091790190913B
:100980007A01019690937A0180937901D3CF90ED0B
:10099000980F9A3058F3833269F6809179019091DB
:1009A0007A0102976CF0E0917901F0917A01EC58AC
:1009B000FE4F108281E090E0909365018093640186
:1009C0001092670110926601B5CF87B1897F87B910
:1009D00088B1866088B9E8E6F0E080818260808333
:1009E000ECE6F0E080818660808308958091680164
:1009F00090916901892BD1F470E060E090E080E093
:100A00000E94C5008CE591E00E940F0170E060E05B
:100A100081E090E00E94C5008BE491E00E940F010C
:100A200080916001909161010C94C30380916801F1
:100A3000909169010197C9F470E060E090E080E076
:100A40000E94C5008BE491E00E940F0170E060E01D
:100A500081E090E00E94C5008CE591E00E940F01CA
:100A60008091000190910101DFCF08951F920F92B4
:100A70000FB60F9211248F939F9386B181FD0BC007
:100A800010926901109268019F918F910F900FBE93
:100A90000F901F90189582FDF7CF81E090E0909322
:100AA000690180936801F0CF84B5826084BDEEE671
:100AB000F0E080818260808380E587BD08951F9289
:100AC0000F920FB60F9211242F938F939F938091C3
:100AD0006A0190916B01892B31F5459A81E090E094
:100AE00090936B0180936A0180916C0190916D01EC
:100AF000019690936D0180936C0180916C019091AF
:100B00006D01853F91403CF085B58B7F85BD10928E
:100B10006D0110926C019F918F912F910F900FBEDC
:100B20000F901F901895459810926B0110926A01D2
:100B3000DBCF3F924F925F926F927F928F929F9204
:100B4000AF92BF92CF92DF92EF92FF920F931F93DB
:100B5000CF93DF93CDB7DEB761970FB6F894DEBFC2
:100B60000FBECDBF0E947800892B09F49FC00E9460
:100B700059000E94360261E080E00E94C50083E3D4
:100B800091E00E940F0161E081E00E94C50088E3CE
:100B900091E00E940F010E94620149E0742E5AE028
:100BA000A52EB12C88248394912C7DE3E72E71E04F
:100BB000F72EE5E06E2E8E010F5F1F4FF0E4CF2E73
:100BC000F1E0DF2EAFE05A2ECE0140960E94F801F0
:100BD0008823D1F3898990E0982F88272889280FC6
:100BE000392F311D729EC001739E900D112497FD07
:100BF000079623E0959587952A95E1F7805C9E4FAF
:100C0000B5010E947706482E392E709361016093DA
:100C1000600180915E0190915F01892B39F4CB01D5
:100C20000E94C30390925F0180925E013F924F92B7
:100C3000809161018F93809160018F93FF92EF9279
:100C40001F926F921F930F930E949F0666E080E0B1
:100C50000E94C500C8010E940F0180916F011F9280
:100C60008F93DF92CF921F925F921F930F930E94F8
:100C70009F066EE080E00E94C500C8010E940F013F
:100C80000E944C040E943903809164019091650197
:100C90000FB6F894DEBF0FBECDBF019711F40E94CE
:100CA000F2030E94F6040E9462018ECF81E00E944E
:100CB000B3008CE291E00E940F0190E080E0619629
:100CC0000FB6F894DEBF0FBECDBFDF91CF911F915D
:100CD0000F91FF90EF90DF90CF90BF90AF909F90DB
:100CE0008F907F906F905F904F903F90089597FB0B
:100CF000072E16F4009407D077FD09D00E948B06CA
:100D000007FC05D03EF4909581959F4F089570950E
:100D100061957F4F0895AA1BBB1B51E107C0AA1F15
:100D2000BB1FA617B70710F0A61BB70B881F991F8C
:100D30005A95A9F780959095BC01CD010895AEE034
:100D4000B0E0E5EAF6E00C94890C0D891E898F89E4
:100D5000988D26E02C831A83098397FF02C080E0D8
:100D600090E801979E838D83AE01455E5F4F698D4C
:100D70007A8DCE0101960E94E8064D815E8157FD75
:100D80000AC02F813885421753070CF49A01020FCD
:100D9000131FF80110822E96E4E00C94A50CAEE02F
:100DA000B0E0E5EDF6E00C948B0C85E08C838B894C
:100DB0009C899A838983AE01495E5F4F6D897E89E4
:100DC000CE0101960E944D0A2E96E2E00C94A70CEB
:100DD000ABE0B0E0EEEEF6E00C947B0C7C013B0166
:100DE0008A01FC0117821682838181FFC8C1CE016E
:100DF00001965C01F7019381F30193FD859193FFC7
:100E000081913F01882309F453C1853239F493FD60
:100E1000859193FF81913F01853229F4B70190E0DC
:100E20000E94B80BE7CF912C212C312CFFE1F31558
:100E300038F08B3211F190F4803209F1833229F1CC
:100E400037FC3CC020ED280F2A3050F536FE20C07C
:100E50008AE0989E200D1124922E06C08D3291F0CA
:100E6000803371F7689430F8F30193FD859193FF17
:100E700081913F018111DACF21C0689431F86894E3
:100E800032F8F2CF689433F8EFCF689434F8ECCFAF
:100E9000EAE02E9E200D1124222E689435F8E4CF2E
:100EA0008E3229F436FC04C1689436F8DDCF8C36D6
:100EB00019F4689437F8D8CF8836B1F2982F9F7D0F
:100EC00095549330E0F08336A1F18337C1F1833537
:100ED00009F063C02801F2E04F0E511CF801C080F8
:100EE000D180692D70E036FC02C06FEF7FEFC60144
:100EF0000E94660B4C01689437F882010AC00C5FAF
:100F00001F4FFFE3F98388248394912C6501E894B3
:100F100037F833FE2DC0522C8114910471F5552001
:100F200009F468CFB70180E290E00E94B80B5A94B0
:100F3000F6CFF801808189830E5F1F4FE4CF28012F
:100F4000F2E04F0E511CF801C080D180692D70E095
:100F500036FC02C06FEF7FEFC6010E94710B4C019F
:100F60008201D5CFB70180E290E00E94B80B2A94AD
:100F70002814190409F0B0F7CECFF60137FC85919B
:100F800037FE81916F01B70190E00E94B80B5110BC
:100F90005A94F1E08F1A9108BFCF843619F0893640
:100FA00009F077C0F80137FE6BC0608171818281E2
:100FB00093810C5F1F4FF32DFF763F2E97FF09C0E3
:100FC00090958095709561957F4F8F4F9F4F689456
:100FD00037F82AE030E0A5010E94000CC82ECA189C
:100FE0008C2C432C36FE0CC0E89440F8C91440F415
:100FF00034FE05C032FC03C0F32DFE7E4F2E892C3B
:1010000044FE95C0FE01EC0DF11D8081803309F096
:1010100087C0242D297E422E842D8870582E43FCB3
:1010200095C040FE8FC09C2C821418F42C0C922C7E
:10103000981844FE91C0B70180E390E00E94B80B7D
:1010400042FE09C088E790E041FE02C088E590E0DA
:10105000B7010E94B80BC91408F48AC0CA94D12CF5
:101060009FEFC91AD90ACA0CDB1CF60182916F01E5
:10107000B70190E00E94B80BAC14BD04B1F74FCF9C
:1010800060817181072E000C880B990B0E5F1F4F3A
:1010900092CFD32CE894D4F82AE030E0853739F1A8
:1010A000232D297FD22E8F3601F148F48835A9F0FF
:1010B000F701868197812B96E2E10C94970C80379B
:1010C00049F08837A9F7D4FE02C06894D2F820E12D
:1010D00030E00DC06894D4F8F6CF34FE03C0822F00
:1010E0008660D82E20E132E002C028E030E0F8012E
:1010F000D7FE0FC060817181828193810C5F1F4F89
:10110000A5010E94000CC82ECA183D2CE89437F89F
:1011100067CF6081718190E080E00E5F1F4FF0CF5C
:1011200042FC02C0839478CF8394839475CF842D3E
:10113000867809F471CFF6CFB70180E290E00E9483
:10114000B80B83948214C0F3512C73CF522C5818CF
:10115000821408F46ECFF8CF842D867809F47BCF03
:101160008BE241FE80E247FC8DE2B70190E071CF57
:10117000B70180E390E00E94B80B9A946CCF8FEF98
:101180009FEF99CF20FD09C0FC0123FD05C022FF80
:1011900002C07383628351834083089544FD17C066
:1011A00046FD1DC0DB01FC01AA0FBB1FEE1FFF1F88
:1011B0001094D1F76A0F7B1F8E1F9F1F660F771F3A
:1011C000881F991F620F711D811D911D089533E0C5
:1011D000660F771F881F991F3150D1F7F3CF34E086
:1011E000F7CF0F931F93CF93DF938C01C8010E9419
:1011F0007C0BEC0197FD08C00E94520B892BB1F7C4
:10120000B801CE010E94E80BCE01DF91CF911F9172
:101210000F9108958F929F92AF92BF92EF92FF929B
:101220000F931F93CF93DF938C01D62F7A01B22EA9
:101230000E947C0B9C0133272B32310529F02D3283
:101240003105A9F46894B7F8D15061F480E0DF91DA
:10125000CF911F910F91FF90EF90BF90AF909F9013
:101260008F900895C8010E947C0B97FDEFCFCB2D86
:10127000CD7F2B2D2073F9F48033E9F4AA24AA94AE
:10128000AD0E89F0C8010E947C0B97FD0CC0282F81
:101290002F7D283561F4C264D25029F0C8010E9424
:1012A0007C0B97FF08C0812C912C54011BC0B6FE0B
:1012B0002BC0C260DA2D812C912C540120ED280F17
:1012C000283028F1C4FD09C02A3008F1C6FF05C046
:1012D0002F7D3FEE320F3630C8F0B8010E94E80B88
:1012E000C1FFB4CFC7FF08C0B094A094909480947D
:1012F000811C911CA11CB11C2C2FB501A401C7019C
:101300000E94C20881E0A3CFC261D4CF27504C2FE6
:10131000C501B4010E94CE084B015C01C260D150EE
:1013200009F3C8010E947C0B97FFC8CFD9CFA0E278
:10133000B0E0EDE9F9E00C94800C5C01962E7A01A6
:10134000CE0101966C0180E2F60111928A95E9F7CF
:10135000F501B381890130E020E0712C812CA0E0FF
:1013600041E050E0F801B3FD8591B3FF8191982FE2
:101370008F01811107C010E000E0C801A096EDE0E8
:101380000C949C0C8E3519F42115310541F1A217EE
:1013900013064CF48D3549F18D3229F4811006C0C5
:1013A000882483941DC0882009F464C0E92FE69541
:1013B000E695E695EC0DFD2DF11D892F8770BA019C
:1013C00001C0660F8A95EAF78081682B60837916E1
:1013D00051F0971510F49F5FE9CF9150E7CFA1E04E
:1013E0002F5F3F4FBFCF812CFBCF882019F08E811C
:1013F00080628E83AA2359F0F6019E012F5D3F4F34
:101400008081809580833196E217F307C9F788249D
:101410008394C5010E947C0B97FD16C0E82FE695CA
:10142000E695E695EC0DFD2DF11D208130E0AC0137
:101430004770552702C0359527954A95E2F720FD5C
:1014400006C0B5010E94E80B882069F094CFE11432
:10145000F10429F0F7018083C70101967C019A9479
:10146000812C9110D6CFE114F10409F486CFF70155
:10147000108283CFE82FE695E695E695EC0DFD2DDD
:10148000F11D982F9770BA0101C0660F9A95EAF77F
:101490009081692B6083782EA3CFB0E0A0E0E3E5D4
:1014A000FAE00C947E0C6C01EB015A01FC011782EE
:1014B0001682512CF601E380FE01E3FC8591E3FEE8
:1014C0008191182FEF018823E9F090E00E94520BE0
:1014D000892B21F0C6010E94F108ECCF153241F4AE
:1014E000FE01E3FC1591E3FE1191EF01153269F461
:1014F000C6010E947C0B97FD8EC01817D9F2B60169
:101500000E94E80B852D90E08AC000E01A3231F489
:10151000E3FC1591E3FE1191EF0101E0F12C20EDC8
:10152000210F2A3048F101FF37C0FF2059F3183648
:10153000B1F11C3609F43DC0112321F3612F70E095
:1015400088E690E00E945B0B892BE1F2912C812CC4
:1015500000FD06C0F50180809180C50102965C0106
:101560001E3679F5F6014681578170E060E0202F44
:10157000C4010E94C2089ECF02606F2D70E090E00F
:1015800080E040E20E94CE08F62EFE01E3FC1591B9
:10159000E3FE1191EF01C3CFFF24FA94C8CFFE01FF
:1015A000E3FC1591E3FE1191EF01183609F0C4CF69
:1015B00008600460FE01E3FC1591E3FE1191EF0168
:1015C000BBCF1336C1F401FD02C0FF24F394C60162
:1015D0000E947C0B97FD1FC08114910429F0F40137
:1015E0008083C40101964C01FA94F110F0CF00FD04
:1015F00061CF53945FCF1B35B9F49E01A4016F2DC9
:10160000C6010E949709EC01892B89F7F6018381B5
:10161000807309F477CF8FEF9FEF511073CFCDB761
:10162000DEB7EFE00C949A0CC6010E94F10897FD1A
:10163000F2CF1F36A9F130F4143641F0193639F0E3
:10164000006405C01337B9F01537D1F70062202FB9
:10165000A4016F2DC6010E940A098111C8CFD6CFFF
:101660008114910429F0F4016082C40101964C01B7
:10167000FA94FF2071F0C6010E947C0B3C0197FD9B
:1016800008C00E94520B892B59F3B601C3010E9476
:10169000E80B8114910409F4AACFF4011082A7CFBA
:1016A0000061D5CF91110C945E0C803219F08950F5
:1016B0008550C8F70895FC010590061621F000201A
:1016C000D9F7C00108953197CF010895FC01059025
:1016D000615070400110D8F7809590958E0F9F1F34
:1016E0000895FC016150704001900110D8F7809579
:1016F00090958E0F9F1F0895CF93DF93EC012B8160
:1017000020FF1AC026FF0CC02F7B2B838E819F8168
:1017100001969F838E838A8190E0DF91CF91089517
:1017200022FF18C0E881F9818081082E000C990BF6
:10173000009729F420622B838FEF9FEFEECF319635
:10174000F983E8832E813F812F5F3F4F3F832E83B4
:101750009927E3CFEA85FB85099597FFF3CF2B8186
:10176000019621F080E2822B8B83E6CF80E1FBCFD4
:101770000F931F93CF93DF93182F092FEB018B81CA
:1017800081FD09C01FEF0FEF812F902FDF91CF91C7
:101790001F910F91089582FF14C02E813F818C818B
:1017A0009D81281739073CF4E881F981CF01019622
:1017B0009983888310838E819F8101969F838E8376
:1017C000E3CFE885F985812F0995892BA1F3DACF3D
:1017D000FB01238120FF11C026FD0FC08F3F98071A
:1017E00071F082832F7D20642383268137812150ED
:1017F000310937832683992708958FEF9FEF089546
:10180000FA01AA27283051F1203181F1E8946F9331
:101810006E7F6E5F7F4F8F4F9F4FAF4FB1E03ED0D7
:10182000B4E03CD0670F781F891F9A1FA11D680F75
:10183000791F8A1F911DA11D6A0F711D811D911DA8
:10184000A11D20D009F468943F912AE0269F11241D
:101850003019305D3193DEF6CF010895462F477081
:10186000405D4193B3E00FD0C9F7F6CF462F4F70DC
:10187000405D4A3318F0495D31FD4052419302D03A
:10188000A9F7EACFB4E0A6959795879577956795E0
:10189000BA95C9F700976105710508959B01AC01E0
:1018A0000A2E06945795479537952795BA95C9F707
:1018B000620F731F841F951FA01D08959927882705
:1018C0000895F999FECF92BD81BDF89A992780B508
:1018D0000895262FF999FECF92BD81BDF89A019700
:1018E00000B4021639F01FBA20BD0FB6F894FA9A68
:1018F000F99A0FBE08952F923F924F925F926F9286
:101900007F928F929F92AF92BF92CF92DF92EF928F
:10191000FF920F931F93CF93DF93CDB7DEB7CA1B10
:10192000DB0B0FB6F894DEBF0FBECDBF09942A883B
:10193000398848885F846E847D848C849B84AA84E3
:10194000B984C884DF80EE80FD800C811B81AA8170
:10195000B981CE0FD11D0FB6F894DEBF0FBECDBF3B
:08196000ED010895F894FFCF9A
:101968000100060126014A015D018801B801EE0166
:101978000B0248656E72792053617A6F00454520E5
:101988003130392050726F6A656374004641494CA2
:101998004544004C6F633A00526D743A0025642E3A
:1019A800256400434F4F4C00484F54200057415284
:0E19B8004D0025336400402B256423003E00C3
:00000001FF
